{
  "contractName": "SimpleStorage",
  "abi": [
    {
      "constant": false,
      "inputs": [
        {
          "name": "_hash",
          "type": "string"
        }
      ],
      "name": "set",
      "outputs": [],
      "payable": false,
      "stateMutability": "nonpayable",
      "type": "function",
      "signature": "0x4ed3885e"
    },
    {
      "constant": true,
      "inputs": [
        {
          "name": "_user",
          "type": "address"
        }
      ],
      "name": "get",
      "outputs": [
        {
          "name": "",
          "type": "string"
        }
      ],
      "payable": false,
      "stateMutability": "view",
      "type": "function",
      "signature": "0xc2bc2efc"
    }
  ],
  "bytecode": "0x608060405234801561001057600080fd5b506103ea806100206000396000f3fe60806040526004361061004c576000357c0100000000000000000000000000000000000000000000000000000000900463ffffffff1680634ed3885e14610051578063c2bc2efc14610119575b600080fd5b34801561005d57600080fd5b506101176004803603602081101561007457600080fd5b810190808035906020019064010000000081111561009157600080fd5b8201836020820111156100a357600080fd5b803590602001918460018302840111640100000000831117156100c557600080fd5b91908080601f016020809104026020016040519081016040528093929190818152602001838380828437600081840152601f19601f8201169050808301925050505050505091929192905050506101e3565b005b34801561012557600080fd5b506101686004803603602081101561013c57600080fd5b81019080803573ffffffffffffffffffffffffffffffffffffffff169060200190929190505050610239565b6040518080602001828103825283818151815260200191508051906020019080838360005b838110156101a857808201518184015260208101905061018d565b50505050905090810190601f1680156101d55780820380516001836020036101000a031916815260200191505b509250505060405180910390f35b806000803373ffffffffffffffffffffffffffffffffffffffff1673ffffffffffffffffffffffffffffffffffffffff1681526020019081526020016000209080519060200190610235929190610319565b5050565b60606000808373ffffffffffffffffffffffffffffffffffffffff1673ffffffffffffffffffffffffffffffffffffffff1681526020019081526020016000208054600181600116156101000203166002900480601f01602080910402602001604051908101604052809291908181526020018280546001816001161561010002031660029004801561030d5780601f106102e25761010080835404028352916020019161030d565b820191906000526020600020905b8154815290600101906020018083116102f057829003601f168201915b50505050509050919050565b828054600181600116156101000203166002900490600052602060002090601f016020900481019282601f1061035a57805160ff1916838001178555610388565b82800160010185558215610388579182015b8281111561038757825182559160200191906001019061036c565b5b5090506103959190610399565b5090565b6103bb91905b808211156103b757600081600090555060010161039f565b5090565b9056fea165627a7a723058202e7169d9289d3fca18abb3f1dcd673cea8eff8f592f6cb4bcdfb5fb2d62c458d0029",
  "source": "pragma solidity ^0.5.0;\n\ncontract SimpleStorage {\n\n  mapping (address => string) ipfsHash;\n\n  function set(string memory _hash) public {\n    ipfsHash[msg.sender] = _hash;\n  }\n\n  function get(address _user) public view returns (string memory) {\n    return ipfsHash[_user];\n  }\n\n}",
  "sourcePath": "C:/Users/sooyoung/Desktop/consensys/ipfs_image_uploader/contracts/SimpleStorage.sol",
  "compiler": {
    "name": "solc",
    "version": "0.5.0+commit.1d4f565a.Emscripten.clang"
  },
  "schemaVersion": "3.0.0",
  "updatedAt": "2019-01-29T01:07:06.419Z",
  "devdoc": {
    "methods": {}
  },
  "userdoc": {
    "methods": {}
  }
}